{
  "contractName": "LipToken",
  "abi": [
    {
      "inputs": [
        {
          "internalType": "string",
          "name": "_name",
          "type": "string"
        },
        {
          "internalType": "string",
          "name": "_symbol",
          "type": "string"
        }
      ],
      "stateMutability": "nonpayable",
      "type": "constructor"
    },
    {
      "anonymous": false,
      "inputs": [
        {
          "indexed": true,
          "internalType": "address",
          "name": "owner",
          "type": "address"
        },
        {
          "indexed": true,
          "internalType": "address",
          "name": "approved",
          "type": "address"
        },
        {
          "indexed": true,
          "internalType": "uint256",
          "name": "tokenId",
          "type": "uint256"
        }
      ],
      "name": "Approval",
      "type": "event"
    },
    {
      "anonymous": false,
      "inputs": [
        {
          "indexed": true,
          "internalType": "address",
          "name": "owner",
          "type": "address"
        },
        {
          "indexed": true,
          "internalType": "address",
          "name": "operator",
          "type": "address"
        },
        {
          "indexed": false,
          "internalType": "bool",
          "name": "approved",
          "type": "bool"
        }
      ],
      "name": "ApprovalForAll",
      "type": "event"
    },
    {
      "anonymous": false,
      "inputs": [
        {
          "indexed": false,
          "internalType": "address",
          "name": "owner",
          "type": "address"
        },
        {
          "indexed": false,
          "internalType": "uint256",
          "name": "id",
          "type": "uint256"
        },
        {
          "indexed": false,
          "internalType": "uint256",
          "name": "dna",
          "type": "uint256"
        }
      ],
      "name": "NewLip",
      "type": "event"
    },
    {
      "anonymous": false,
      "inputs": [
        {
          "indexed": true,
          "internalType": "address",
          "name": "previousOwner",
          "type": "address"
        },
        {
          "indexed": true,
          "internalType": "address",
          "name": "newOwner",
          "type": "address"
        }
      ],
      "name": "OwnershipTransferred",
      "type": "event"
    },
    {
      "anonymous": false,
      "inputs": [
        {
          "indexed": true,
          "internalType": "address",
          "name": "from",
          "type": "address"
        },
        {
          "indexed": true,
          "internalType": "address",
          "name": "to",
          "type": "address"
        },
        {
          "indexed": true,
          "internalType": "uint256",
          "name": "tokenId",
          "type": "uint256"
        }
      ],
      "name": "Transfer",
      "type": "event"
    },
    {
      "inputs": [
        {
          "internalType": "address",
          "name": "to",
          "type": "address"
        },
        {
          "internalType": "uint256",
          "name": "tokenId",
          "type": "uint256"
        }
      ],
      "name": "approve",
      "outputs": [],
      "stateMutability": "nonpayable",
      "type": "function"
    },
    {
      "inputs": [
        {
          "internalType": "address",
          "name": "owner",
          "type": "address"
        }
      ],
      "name": "balanceOf",
      "outputs": [
        {
          "internalType": "uint256",
          "name": "",
          "type": "uint256"
        }
      ],
      "stateMutability": "view",
      "type": "function",
      "constant": true
    },
    {
      "inputs": [
        {
          "internalType": "uint256",
          "name": "tokenId",
          "type": "uint256"
        }
      ],
      "name": "getApproved",
      "outputs": [
        {
          "internalType": "address",
          "name": "",
          "type": "address"
        }
      ],
      "stateMutability": "view",
      "type": "function",
      "constant": true
    },
    {
      "inputs": [
        {
          "internalType": "address",
          "name": "owner",
          "type": "address"
        },
        {
          "internalType": "address",
          "name": "operator",
          "type": "address"
        }
      ],
      "name": "isApprovedForAll",
      "outputs": [
        {
          "internalType": "bool",
          "name": "",
          "type": "bool"
        }
      ],
      "stateMutability": "view",
      "type": "function",
      "constant": true
    },
    {
      "inputs": [
        {
          "internalType": "uint256",
          "name": "",
          "type": "uint256"
        }
      ],
      "name": "lips",
      "outputs": [
        {
          "internalType": "string",
          "name": "name",
          "type": "string"
        },
        {
          "internalType": "uint256",
          "name": "id",
          "type": "uint256"
        },
        {
          "internalType": "uint256",
          "name": "dna",
          "type": "uint256"
        },
        {
          "internalType": "uint8",
          "name": "level",
          "type": "uint8"
        },
        {
          "internalType": "uint8",
          "name": "rarity",
          "type": "uint8"
        }
      ],
      "stateMutability": "view",
      "type": "function",
      "constant": true
    },
    {
      "inputs": [],
      "name": "name",
      "outputs": [
        {
          "internalType": "string",
          "name": "",
          "type": "string"
        }
      ],
      "stateMutability": "view",
      "type": "function",
      "constant": true
    },
    {
      "inputs": [],
      "name": "owner",
      "outputs": [
        {
          "internalType": "address",
          "name": "",
          "type": "address"
        }
      ],
      "stateMutability": "view",
      "type": "function",
      "constant": true
    },
    {
      "inputs": [
        {
          "internalType": "uint256",
          "name": "tokenId",
          "type": "uint256"
        }
      ],
      "name": "ownerOf",
      "outputs": [
        {
          "internalType": "address",
          "name": "",
          "type": "address"
        }
      ],
      "stateMutability": "view",
      "type": "function",
      "constant": true
    },
    {
      "inputs": [],
      "name": "renounceOwnership",
      "outputs": [],
      "stateMutability": "nonpayable",
      "type": "function"
    },
    {
      "inputs": [
        {
          "internalType": "address",
          "name": "from",
          "type": "address"
        },
        {
          "internalType": "address",
          "name": "to",
          "type": "address"
        },
        {
          "internalType": "uint256",
          "name": "tokenId",
          "type": "uint256"
        }
      ],
      "name": "safeTransferFrom",
      "outputs": [],
      "stateMutability": "nonpayable",
      "type": "function"
    },
    {
      "inputs": [
        {
          "internalType": "address",
          "name": "from",
          "type": "address"
        },
        {
          "internalType": "address",
          "name": "to",
          "type": "address"
        },
        {
          "internalType": "uint256",
          "name": "tokenId",
          "type": "uint256"
        },
        {
          "internalType": "bytes",
          "name": "_data",
          "type": "bytes"
        }
      ],
      "name": "safeTransferFrom",
      "outputs": [],
      "stateMutability": "nonpayable",
      "type": "function"
    },
    {
      "inputs": [
        {
          "internalType": "address",
          "name": "operator",
          "type": "address"
        },
        {
          "internalType": "bool",
          "name": "approved",
          "type": "bool"
        }
      ],
      "name": "setApprovalForAll",
      "outputs": [],
      "stateMutability": "nonpayable",
      "type": "function"
    },
    {
      "inputs": [
        {
          "internalType": "bytes4",
          "name": "interfaceId",
          "type": "bytes4"
        }
      ],
      "name": "supportsInterface",
      "outputs": [
        {
          "internalType": "bool",
          "name": "",
          "type": "bool"
        }
      ],
      "stateMutability": "view",
      "type": "function",
      "constant": true
    },
    {
      "inputs": [],
      "name": "symbol",
      "outputs": [
        {
          "internalType": "string",
          "name": "",
          "type": "string"
        }
      ],
      "stateMutability": "view",
      "type": "function",
      "constant": true
    },
    {
      "inputs": [
        {
          "internalType": "uint256",
          "name": "tokenId",
          "type": "uint256"
        }
      ],
      "name": "tokenURI",
      "outputs": [
        {
          "internalType": "string",
          "name": "",
          "type": "string"
        }
      ],
      "stateMutability": "view",
      "type": "function",
      "constant": true
    },
    {
      "inputs": [
        {
          "internalType": "address",
          "name": "from",
          "type": "address"
        },
        {
          "internalType": "address",
          "name": "to",
          "type": "address"
        },
        {
          "internalType": "uint256",
          "name": "tokenId",
          "type": "uint256"
        }
      ],
      "name": "transferFrom",
      "outputs": [],
      "stateMutability": "nonpayable",
      "type": "function"
    },
    {
      "inputs": [
        {
          "internalType": "address",
          "name": "newOwner",
          "type": "address"
        }
      ],
      "name": "transferOwnership",
      "outputs": [],
      "stateMutability": "nonpayable",
      "type": "function"
    },
    {
      "inputs": [
        {
          "internalType": "uint256",
          "name": "_fee",
          "type": "uint256"
        }
      ],
      "name": "updateFee",
      "outputs": [],
      "stateMutability": "nonpayable",
      "type": "function"
    },
    {
      "inputs": [],
      "name": "withDraw",
      "outputs": [],
      "stateMutability": "nonpayable",
      "type": "function"
    },
    {
      "inputs": [
        {
          "internalType": "string",
          "name": "_name",
          "type": "string"
        }
      ],
      "name": "createRandomLip",
      "outputs": [],
      "stateMutability": "payable",
      "type": "function",
      "payable": true
    },
    {
      "inputs": [],
      "name": "getLips",
      "outputs": [
        {
          "components": [
            {
              "internalType": "string",
              "name": "name",
              "type": "string"
            },
            {
              "internalType": "uint256",
              "name": "id",
              "type": "uint256"
            },
            {
              "internalType": "uint256",
              "name": "dna",
              "type": "uint256"
            },
            {
              "internalType": "uint8",
              "name": "level",
              "type": "uint8"
            },
            {
              "internalType": "uint8",
              "name": "rarity",
              "type": "uint8"
            }
          ],
          "internalType": "struct LipToken.Lip[]",
          "name": "",
          "type": "tuple[]"
        }
      ],
      "stateMutability": "view",
      "type": "function",
      "constant": true
    },
    {
      "inputs": [
        {
          "internalType": "address",
          "name": "_owner",
          "type": "address"
        }
      ],
      "name": "getOwnerLips",
      "outputs": [
        {
          "components": [
            {
              "internalType": "string",
              "name": "name",
              "type": "string"
            },
            {
              "internalType": "uint256",
              "name": "id",
              "type": "uint256"
            },
            {
              "internalType": "uint256",
              "name": "dna",
              "type": "uint256"
            },
            {
              "internalType": "uint8",
              "name": "level",
              "type": "uint8"
            },
            {
              "internalType": "uint8",
              "name": "rarity",
              "type": "uint8"
            }
          ],
          "internalType": "struct LipToken.Lip[]",
          "name": "",
          "type": "tuple[]"
        }
      ],
      "stateMutability": "view",
      "type": "function",
      "constant": true
    },
    {
      "inputs": [
        {
          "internalType": "uint256",
          "name": "_lipId",
          "type": "uint256"
        }
      ],
      "name": "levelUp",
      "outputs": [],
      "stateMutability": "nonpayable",
      "type": "function"
    }
  ],
  "bytecode": "0x608060405267016345785d8a00006007553480156200001d57600080fd5b506040516200241138038062002411833981016040819052620000409162000247565b81518290829062000059906000906020850190620000ea565b5080516200006f906001906020840190620000ea565b5050506200008c620000866200009460201b60201c565b62000098565b505062000304565b3390565b600680546001600160a01b038381166001600160a01b0319831681179093556040519116919082907f8be0079c531659141344cd1fd0a4f28419497f9722a3daafe3b4186f6b6457e090600090a35050565b828054620000f890620002b1565b90600052602060002090601f0160209004810192826200011c576000855562000167565b82601f106200013757805160ff191683800117855562000167565b8280016001018555821562000167579182015b82811115620001675782518255916020019190600101906200014a565b506200017592915062000179565b5090565b5b808211156200017557600081556001016200017a565b600082601f830112620001a257600080fd5b81516001600160401b0380821115620001bf57620001bf620002ee565b604051601f8301601f19908116603f01168101908282118183101715620001ea57620001ea620002ee565b816040528381526020925086838588010111156200020757600080fd5b600091505b838210156200022b57858201830151818301840152908201906200020c565b838211156200023d5760008385830101525b9695505050505050565b600080604083850312156200025b57600080fd5b82516001600160401b03808211156200027357600080fd5b620002818683870162000190565b935060208501519150808211156200029857600080fd5b50620002a78582860162000190565b9150509250929050565b600181811c90821680620002c657607f821691505b60208210811415620002e857634e487b7160e01b600052602260045260246000fd5b50919050565b634e487b7160e01b600052604160045260246000fd5b6120fd80620003146000396000f3fe6080604052600436106101405760003560e01c806370a08231116100b657806395d89b411161006f57806395d89b4114610392578063a22cb465146103a7578063b88d4fde146103c7578063c87b56dd146103e7578063e985e9c514610407578063f2fde38b1461045057600080fd5b806370a08231146102cf578063715018a6146102fd57806383b5daf7146103125780638c0b9c54146103345780638da5cb5b146103545780639012c4a81461037257600080fd5b80630fdb1c10116101085780630fdb1c101461021657806323b872dd1461022b57806342842e0e1461024b5780635ec163db1461026b5780636352211e1461029c578063698d640c146102bc57600080fd5b806301ffc9a71461014557806306fdde031461017a578063081812fc1461019c578063095ea7b3146101d45780630ce90ec2146101f6575b600080fd5b34801561015157600080fd5b50610165610160366004611c4a565b610470565b60405190151581526020015b60405180910390f35b34801561018657600080fd5b5061018f6104c2565b6040516101719190611e1c565b3480156101a857600080fd5b506101bc6101b7366004611ccd565b610554565b6040516001600160a01b039091168152602001610171565b3480156101e057600080fd5b506101f46101ef366004611c20565b6105ee565b005b34801561020257600080fd5b506101f4610211366004611ccd565b610704565b34801561022257600080fd5b506101f46107be565b34801561023757600080fd5b506101f4610246366004611b2c565b610838565b34801561025757600080fd5b506101f4610266366004611b2c565b610869565b34801561027757600080fd5b5061028b610286366004611ccd565b610884565b604051610171959493929190611e2f565b3480156102a857600080fd5b506101bc6102b7366004611ccd565b61095a565b6101f46102ca366004611c84565b6109d1565b3480156102db57600080fd5b506102ef6102ea366004611ade565b610a2e565b604051908152602001610171565b34801561030957600080fd5b506101f4610ab5565b34801561031e57600080fd5b50610327610aeb565b6040516101719190611d7e565b34801561034057600080fd5b5061032761034f366004611ade565b610c11565b34801561036057600080fd5b506006546001600160a01b03166101bc565b34801561037e57600080fd5b506101f461038d366004611ccd565b610e09565b34801561039e57600080fd5b5061018f610e4b565b3480156103b357600080fd5b506101f46103c2366004611be4565b610e5a565b3480156103d357600080fd5b506101f46103e2366004611b68565b610e65565b3480156103f357600080fd5b5061018f610402366004611ccd565b610e9d565b34801561041357600080fd5b50610165610422366004611af9565b6001600160a01b03918216600090815260056020908152604080832093909416825291909152205460ff1690565b34801561045c57600080fd5b506101f461046b366004611ade565b610f85565b60006001600160e01b031982166380ac58cd60e01b14806104a157506001600160e01b03198216635b5e139f60e01b145b806104bc57506301ffc9a760e01b6001600160e01b03198316145b92915050565b6060600080546104d190611fcf565b80601f01602080910402602001604051908101604052809291908181526020018280546104fd90611fcf565b801561054a5780601f1061051f5761010080835404028352916020019161054a565b820191906000526020600020905b81548152906001019060200180831161052d57829003601f168201915b5050505050905090565b6000818152600260205260408120546001600160a01b03166105d25760405162461bcd60e51b815260206004820152602c60248201527f4552433732313a20617070726f76656420717565727920666f72206e6f6e657860448201526b34b9ba32b73a103a37b5b2b760a11b60648201526084015b60405180910390fd5b506000908152600460205260409020546001600160a01b031690565b60006105f98261095a565b9050806001600160a01b0316836001600160a01b031614156106675760405162461bcd60e51b815260206004820152602160248201527f4552433732313a20617070726f76616c20746f2063757272656e74206f776e656044820152603960f91b60648201526084016105c9565b336001600160a01b038216148061068357506106838133610422565b6106f55760405162461bcd60e51b815260206004820152603860248201527f4552433732313a20617070726f76652063616c6c6572206973206e6f74206f7760448201527f6e6572206e6f7220617070726f76656420666f7220616c6c000000000000000060648201526084016105c9565b6106ff838361101d565b505050565b3361070e8261095a565b6001600160a01b0316146107645760405162461bcd60e51b815260206004820152601d60248201527f4f6e6c79204e4654206f776e6572732063616e206c6576656c2075702e00000060448201526064016105c9565b60006009828154811061077957610779612085565b6000918252602082206003600490920201908101805491935060ff909116916107a183612025565b91906101000a81548160ff021916908360ff160217905550505050565b6006546001600160a01b031633146107e85760405162461bcd60e51b81526004016105c990611ebb565b60006107fc6006546001600160a01b031690565b6040519091506001600160a01b038216904780156108fc02916000818181858888f19350505050158015610834573d6000803e3d6000fd5b5050565b610842338261108b565b61085e5760405162461bcd60e51b81526004016105c990611ef0565b6106ff838383611182565b6106ff83838360405180602001604052806000815250610e65565b6009818154811061089457600080fd5b90600052602060002090600402016000915090508060000180546108b790611fcf565b80601f01602080910402602001604051908101604052809291908181526020018280546108e390611fcf565b80156109305780601f1061090557610100808354040283529160200191610930565b820191906000526020600020905b81548152906001019060200180831161091357829003601f168201915b50505050600183015460028401546003909401549293909290915060ff8082169161010090041685565b6000818152600260205260408120546001600160a01b0316806104bc5760405162461bcd60e51b815260206004820152602960248201527f4552433732313a206f776e657220717565727920666f72206e6f6e657869737460448201526832b73a103a37b5b2b760b91b60648201526084016105c9565b6007543414610a225760405162461bcd60e51b815260206004820152601760248201527f466565206973206e6f742061732072657175697265642100000000000000000060448201526064016105c9565b610a2b81611322565b50565b60006001600160a01b038216610a995760405162461bcd60e51b815260206004820152602a60248201527f4552433732313a2062616c616e636520717565727920666f7220746865207a65604482015269726f206164647265737360b01b60648201526084016105c9565b506001600160a01b031660009081526003602052604090205490565b6006546001600160a01b03163314610adf5760405162461bcd60e51b81526004016105c990611ebb565b610ae96000611470565b565b60606009805480602002602001604051908101604052809291908181526020016000905b82821015610c0857838290600052602060002090600402016040518060a0016040529081600082018054610b4290611fcf565b80601f0160208091040260200160405190810160405280929190818152602001828054610b6e90611fcf565b8015610bbb5780601f10610b9057610100808354040283529160200191610bbb565b820191906000526020600020905b815481529060010190602001808311610b9e57829003601f168201915b50505091835250506001828101546020808401919091526002840154604084015260039093015460ff80821660608501526101009091041660809092019190915291835292019101610b0f565b50505050905090565b60606000610c1e83610a2e565b67ffffffffffffffff811115610c3657610c3661209b565b604051908082528060200260200182016040528015610c9f57816020015b610c8c6040518060a00160405280606081526020016000815260200160008152602001600060ff168152602001600060ff1681525090565b815260200190600190039081610c545790505b5090506000805b600954811015610e0057846001600160a01b0316610cc38261095a565b6001600160a01b03161415610dee5760098181548110610ce557610ce5612085565b90600052602060002090600402016040518060a0016040529081600082018054610d0e90611fcf565b80601f0160208091040260200160405190810160405280929190818152602001828054610d3a90611fcf565b8015610d875780601f10610d5c57610100808354040283529160200191610d87565b820191906000526020600020905b815481529060010190602001808311610d6a57829003601f168201915b5050509183525050600182015460208201526002820154604082015260039091015460ff8082166060840152610100909104166080909101528351849084908110610dd457610dd4612085565b60200260200101819052508180610dea9061200a565b9250505b80610df88161200a565b915050610ca6565b50909392505050565b6006546001600160a01b03163314610e335760405162461bcd60e51b81526004016105c990611ebb565b610e4581670de0b6b3a7640000611f6d565b60075550565b6060600180546104d190611fcf565b6108343383836114c2565b610e6f338361108b565b610e8b5760405162461bcd60e51b81526004016105c990611ef0565b610e9784848484611591565b50505050565b6000818152600260205260409020546060906001600160a01b0316610f1c5760405162461bcd60e51b815260206004820152602f60248201527f4552433732314d657461646174613a2055524920717565727920666f72206e6f60448201526e3732bc34b9ba32b73a103a37b5b2b760891b60648201526084016105c9565b6000610f3360408051602081019091526000815290565b90506000815111610f535760405180602001604052806000815250610f7e565b80610f5d846115c4565b604051602001610f6e929190611d12565b6040516020818303038152906040525b9392505050565b6006546001600160a01b03163314610faf5760405162461bcd60e51b81526004016105c990611ebb565b6001600160a01b0381166110145760405162461bcd60e51b815260206004820152602660248201527f4f776e61626c653a206e6577206f776e657220697320746865207a65726f206160448201526564647265737360d01b60648201526084016105c9565b610a2b81611470565b600081815260046020526040902080546001600160a01b0319166001600160a01b03841690811790915581906110528261095a565b6001600160a01b03167f8c5be1e5ebec7d5bd14f71427d1e84f3dd0314c0f7b2291e5b200ac8c7c3b92560405160405180910390a45050565b6000818152600260205260408120546001600160a01b03166111045760405162461bcd60e51b815260206004820152602c60248201527f4552433732313a206f70657261746f7220717565727920666f72206e6f6e657860448201526b34b9ba32b73a103a37b5b2b760a11b60648201526084016105c9565b600061110f8361095a565b9050806001600160a01b0316846001600160a01b0316148061114a5750836001600160a01b031661113f84610554565b6001600160a01b0316145b8061117a57506001600160a01b0380821660009081526005602090815260408083209388168352929052205460ff165b949350505050565b826001600160a01b03166111958261095a565b6001600160a01b0316146111fd5760405162461bcd60e51b815260206004820152602960248201527f4552433732313a207472616e73666572206f6620746f6b656e2074686174206960448201526839903737ba1037bbb760b91b60648201526084016105c9565b6001600160a01b03821661125f5760405162461bcd60e51b8152602060048201526024808201527f4552433732313a207472616e7366657220746f20746865207a65726f206164646044820152637265737360e01b60648201526084016105c9565b61126a60008261101d565b6001600160a01b0383166000908152600360205260408120805460019290611293908490611f8c565b90915550506001600160a01b03821660009081526003602052604081208054600192906112c1908490611f41565b909155505060008181526002602052604080822080546001600160a01b0319166001600160a01b0386811691821790925591518493918716917fddf252ad1be2c89b69c2b068fc378daa952ba7f163c4a11628f55a4df523b3ef91a4505050565b600061132e60646116c2565b90506000611342662386f26fc100006116c2565b6040805160a08101825285815260085460208083019190915291810183905260016060820181905260ff86166080830152600980549182018155600052815180519495509193849360049092027f6e1540171b6c0c960b71a7020d9f60077f6af931a8bbf590da0223dacf75c7af01926113c09284929101906119b3565b50602082015160018201556040820151600282015560608201516003909101805460809093015160ff9081166101000261ffff19909416921691909117919091179055600854611411903390611717565b60085460408051338152602081019290925281018390527f24d2d558f98bdd9d21339e119fc0b03e213c7d05affd838ac2ee136d90e3bbeb9060600160405180910390a1600880549060006114658361200a565b919050555050505050565b600680546001600160a01b038381166001600160a01b0319831681179093556040519116919082907f8be0079c531659141344cd1fd0a4f28419497f9722a3daafe3b4186f6b6457e090600090a35050565b816001600160a01b0316836001600160a01b031614156115245760405162461bcd60e51b815260206004820152601960248201527f4552433732313a20617070726f766520746f2063616c6c65720000000000000060448201526064016105c9565b6001600160a01b03838116600081815260056020908152604080832094871680845294825291829020805460ff191686151590811790915591519182527f17307eab39ab6107e8899845ad3d59bd9653f200f220920489ca2b5937696c31910160405180910390a3505050565b61159c848484611182565b6115a884848484611731565b610e975760405162461bcd60e51b81526004016105c990611e69565b6060816115e85750506040805180820190915260018152600360fc1b602082015290565b8160005b811561161257806115fc8161200a565b915061160b9050600a83611f59565b91506115ec565b60008167ffffffffffffffff81111561162d5761162d61209b565b6040519080825280601f01601f191660200182016040528015611657576020820181803683370190505b5090505b841561117a5761166c600183611f8c565b9150611679600a86612045565b611684906030611f41565b60f81b81838151811061169957611699612085565b60200101906001600160f81b031916908160001a9053506116bb600a86611f59565b945061165b565b60008042336040516020016116f392919091825260601b6bffffffffffffffffffffffff1916602082015260340190565b60408051601f1981840301815291905280516020909101209050610f7e8382612045565b61083482826040518060200160405280600081525061183e565b60006001600160a01b0384163b1561183357604051630a85bd0160e11b81526001600160a01b0385169063150b7a0290611775903390899088908890600401611d41565b602060405180830381600087803b15801561178f57600080fd5b505af19250505080156117bf575060408051601f3d908101601f191682019092526117bc91810190611c67565b60015b611819573d8080156117ed576040519150601f19603f3d011682016040523d82523d6000602084013e6117f2565b606091505b5080516118115760405162461bcd60e51b81526004016105c990611e69565b805181602001fd5b6001600160e01b031916630a85bd0160e11b14905061117a565b506001949350505050565b6118488383611871565b6118556000848484611731565b6106ff5760405162461bcd60e51b81526004016105c990611e69565b6001600160a01b0382166118c75760405162461bcd60e51b815260206004820181905260248201527f4552433732313a206d696e7420746f20746865207a65726f206164647265737360448201526064016105c9565b6000818152600260205260409020546001600160a01b03161561192c5760405162461bcd60e51b815260206004820152601c60248201527f4552433732313a20746f6b656e20616c7265616479206d696e7465640000000060448201526064016105c9565b6001600160a01b0382166000908152600360205260408120805460019290611955908490611f41565b909155505060008181526002602052604080822080546001600160a01b0319166001600160a01b03861690811790915590518392907fddf252ad1be2c89b69c2b068fc378daa952ba7f163c4a11628f55a4df523b3ef908290a45050565b8280546119bf90611fcf565b90600052602060002090601f0160209004810192826119e15760008555611a27565b82601f106119fa57805160ff1916838001178555611a27565b82800160010185558215611a27579182015b82811115611a27578251825591602001919060010190611a0c565b50611a33929150611a37565b5090565b5b80821115611a335760008155600101611a38565b600067ffffffffffffffff80841115611a6757611a6761209b565b604051601f8501601f19908116603f01168101908282118183101715611a8f57611a8f61209b565b81604052809350858152868686011115611aa857600080fd5b858560208301376000602087830101525050509392505050565b80356001600160a01b0381168114611ad957600080fd5b919050565b600060208284031215611af057600080fd5b610f7e82611ac2565b60008060408385031215611b0c57600080fd5b611b1583611ac2565b9150611b2360208401611ac2565b90509250929050565b600080600060608486031215611b4157600080fd5b611b4a84611ac2565b9250611b5860208501611ac2565b9150604084013590509250925092565b60008060008060808587031215611b7e57600080fd5b611b8785611ac2565b9350611b9560208601611ac2565b925060408501359150606085013567ffffffffffffffff811115611bb857600080fd5b8501601f81018713611bc957600080fd5b611bd887823560208401611a4c565b91505092959194509250565b60008060408385031215611bf757600080fd5b611c0083611ac2565b915060208301358015158114611c1557600080fd5b809150509250929050565b60008060408385031215611c3357600080fd5b611c3c83611ac2565b946020939093013593505050565b600060208284031215611c5c57600080fd5b8135610f7e816120b1565b600060208284031215611c7957600080fd5b8151610f7e816120b1565b600060208284031215611c9657600080fd5b813567ffffffffffffffff811115611cad57600080fd5b8201601f81018413611cbe57600080fd5b61117a84823560208401611a4c565b600060208284031215611cdf57600080fd5b5035919050565b60008151808452611cfe816020860160208601611fa3565b601f01601f19169290920160200192915050565b60008351611d24818460208801611fa3565b835190830190611d38818360208801611fa3565b01949350505050565b6001600160a01b0385811682528416602082015260408101839052608060608201819052600090611d7490830184611ce6565b9695505050505050565b60006020808301818452808551808352604092508286019150828160051b87010184880160005b83811015611e0e57603f19898403018552815160a08151818652611dcb82870182611ce6565b838b0151878c0152898401518a88015260608085015160ff9081169189019190915260809485015116939096019290925250509386019390860190600101611da5565b509098975050505050505050565b602081526000610f7e6020830184611ce6565b60a081526000611e4260a0830188611ce6565b602083019690965250604081019390935260ff918216606084015216608090910152919050565b60208082526032908201527f4552433732313a207472616e7366657220746f206e6f6e20455243373231526560408201527131b2b4bb32b91034b6b83632b6b2b73a32b960711b606082015260800190565b6020808252818101527f4f776e61626c653a2063616c6c6572206973206e6f7420746865206f776e6572604082015260600190565b60208082526031908201527f4552433732313a207472616e736665722063616c6c6572206973206e6f74206f6040820152701ddb995c881b9bdc88185c1c1c9bdd9959607a1b606082015260800190565b60008219821115611f5457611f54612059565b500190565b600082611f6857611f6861206f565b500490565b6000816000190483118215151615611f8757611f87612059565b500290565b600082821015611f9e57611f9e612059565b500390565b60005b83811015611fbe578181015183820152602001611fa6565b83811115610e975750506000910152565b600181811c90821680611fe357607f821691505b6020821081141561200457634e487b7160e01b600052602260045260246000fd5b50919050565b600060001982141561201e5761201e612059565b5060010190565b600060ff821660ff81141561203c5761203c612059565b60010192915050565b6000826120545761205461206f565b500690565b634e487b7160e01b600052601160045260246000fd5b634e487b7160e01b600052601260045260246000fd5b634e487b7160e01b600052603260045260246000fd5b634e487b7160e01b600052604160045260246000fd5b6001600160e01b031981168114610a2b57600080fdfea26469706673582212200fdea785380dcbb0c81903ecbf1237f99c0262b381ecdb70cfd836cfcb17980f64736f6c63430008070033",
  "immutableReferences": {},
  "source": "// SPDX-License-Identifier: GPL-3.0\r\n\r\npragma solidity ^0.8.0;\r\n\r\nimport \"@openzeppelin/contracts/token/ERC721/ERC721.sol\";\r\nimport \"@openzeppelin/contracts/access/Ownable.sol\";\r\n\r\ncontract LipToken is ERC721, Ownable {\r\n    constructor(string memory _name, string memory _symbol)\r\n        ERC721(_name, _symbol)\r\n    {}\r\n\r\n    uint256 fee = 0.1 ether;\r\n    uint256 COUNTER;\r\n    struct Lip {\r\n        string name;\r\n        uint256 id;\r\n        uint256 dna;\r\n        uint8 level;\r\n        uint8 rarity;\r\n    }\r\n    Lip[] public lips;\r\n\r\n    event NewLip(address owner, uint256 id, uint256 dna);\r\n\r\n    //Helpers\r\n    function _createRandomNumber(uint256 _mod) internal view returns (uint256) {\r\n        uint256 randNumber = uint256(\r\n            keccak256(abi.encodePacked(block.timestamp, msg.sender))\r\n        );\r\n        return randNumber % _mod;\r\n    }\r\n\r\n    function updateFee(uint256 _fee) external onlyOwner {\r\n        fee = _fee * (1 ether);\r\n    }\r\n\r\n    function withDraw() external onlyOwner {\r\n        address _owner = owner();\r\n        payable(_owner).transfer(address(this).balance);\r\n    }\r\n\r\n    //Creations\r\n    function _createLip(string memory _name) internal {\r\n        uint8 _rarity = uint8(_createRandomNumber(100));\r\n        uint256 _dna = _createRandomNumber(10**16);\r\n        Lip memory newLip = Lip(_name, COUNTER, _dna, 1, _rarity);\r\n        lips.push(newLip);\r\n        _safeMint(msg.sender, COUNTER);\r\n        emit NewLip(msg.sender, COUNTER, _dna);\r\n        COUNTER++;\r\n    }\r\n\r\n    function createRandomLip(string memory _name) public payable {\r\n        require(msg.value == fee, \"Fee is not as required!\");\r\n        _createLip(_name);\r\n    }\r\n\r\n    //Getters\r\n    function getLips() public view returns (Lip[] memory) {\r\n        return lips;\r\n    }\r\n\r\n    function getOwnerLips(address _owner) public view returns (Lip[] memory) {\r\n        Lip[] memory result = new Lip[](balanceOf(_owner));\r\n        uint256 counter = 0;\r\n        for (uint256 i = 0; i < lips.length; i++) {\r\n            if (ownerOf(i) == _owner) {\r\n                result[counter] = lips[i];\r\n                counter++;\r\n            }\r\n        }\r\n        return result;\r\n    }\r\n\r\n    //Actions\r\n    function levelUp(uint256 _lipId) public {\r\n        require(ownerOf(_lipId) == msg.sender, \"Only NFT owners can level up.\");\r\n        Lip storage lip = lips[_lipId];\r\n        lip.level++;\r\n    }\r\n}\r\n",
  "sourcePath": "A:\\Projects\\nft_game\\nft_game\\contracts\\LipToken.sol",
  "compiler": {
    "name": "solc",
    "version": "0.8.7+commit.e28d00a7.Emscripten.clang"
  },
  "schemaVersion": "3.4.3",
  "updatedAt": "2022-04-23T08:22:28.810Z",
  "networkType": "ethereum",
  "devdoc": {
    "kind": "dev",
    "methods": {
      "approve(address,uint256)": {
        "details": "See {IERC721-approve}."
      },
      "balanceOf(address)": {
        "details": "See {IERC721-balanceOf}."
      },
      "getApproved(uint256)": {
        "details": "See {IERC721-getApproved}."
      },
      "isApprovedForAll(address,address)": {
        "details": "See {IERC721-isApprovedForAll}."
      },
      "name()": {
        "details": "See {IERC721Metadata-name}."
      },
      "owner()": {
        "details": "Returns the address of the current owner."
      },
      "ownerOf(uint256)": {
        "details": "See {IERC721-ownerOf}."
      },
      "renounceOwnership()": {
        "details": "Leaves the contract without owner. It will not be possible to call `onlyOwner` functions anymore. Can only be called by the current owner. NOTE: Renouncing ownership will leave the contract without an owner, thereby removing any functionality that is only available to the owner."
      },
      "safeTransferFrom(address,address,uint256)": {
        "details": "See {IERC721-safeTransferFrom}."
      },
      "safeTransferFrom(address,address,uint256,bytes)": {
        "details": "See {IERC721-safeTransferFrom}."
      },
      "setApprovalForAll(address,bool)": {
        "details": "See {IERC721-setApprovalForAll}."
      },
      "supportsInterface(bytes4)": {
        "details": "See {IERC165-supportsInterface}."
      },
      "symbol()": {
        "details": "See {IERC721Metadata-symbol}."
      },
      "tokenURI(uint256)": {
        "details": "See {IERC721Metadata-tokenURI}."
      },
      "transferFrom(address,address,uint256)": {
        "details": "See {IERC721-transferFrom}."
      },
      "transferOwnership(address)": {
        "details": "Transfers ownership of the contract to a new account (`newOwner`). Can only be called by the current owner."
      }
    },
    "version": 1
  },
  "userdoc": {
    "kind": "user",
    "methods": {},
    "version": 1
  }
}